{
  "_format": "hh-sol-artifact-1",
  "contractName": "RandomIpfsNFT",
  "sourceName": "contracts/RandomIpfsNFT.sol",
  "abi": [
    {
      "inputs": [
        {
          "internalType": "address",
          "name": "vrfCoorrdinatorV2",
          "type": "address"
        },
        {
          "internalType": "bytes32",
          "name": "gasLane",
          "type": "bytes32"
        },
        {
          "internalType": "uint64",
          "name": "subscriptionId",
          "type": "uint64"
        },
        {
          "internalType": "uint32",
          "name": "callbackGasLimit",
          "type": "uint32"
        },
        {
          "internalType": "string[3]",
          "name": "dogTokenUris",
          "type": "string[3]"
        }
      ],
      "stateMutability": "nonpayable",
      "type": "constructor"
    },
    {
      "inputs": [
        {
          "internalType": "address",
          "name": "have",
          "type": "address"
        },
        {
          "internalType": "address",
          "name": "want",
          "type": "address"
        }
      ],
      "name": "OnlyCoordinatorCanFulfill",
      "type": "error"
    },
    {
      "anonymous": false,
      "inputs": [
        {
          "indexed": true,
          "internalType": "address",
          "name": "owner",
          "type": "address"
        },
        {
          "indexed": true,
          "internalType": "address",
          "name": "approved",
          "type": "address"
        },
        {
          "indexed": true,
          "internalType": "uint256",
          "name": "tokenId",
          "type": "uint256"
        }
      ],
      "name": "Approval",
      "type": "event"
    },
    {
      "anonymous": false,
      "inputs": [
        {
          "indexed": true,
          "internalType": "address",
          "name": "owner",
          "type": "address"
        },
        {
          "indexed": true,
          "internalType": "address",
          "name": "operator",
          "type": "address"
        },
        {
          "indexed": false,
          "internalType": "bool",
          "name": "approved",
          "type": "bool"
        }
      ],
      "name": "ApprovalForAll",
      "type": "event"
    },
    {
      "anonymous": false,
      "inputs": [
        {
          "indexed": true,
          "internalType": "address",
          "name": "from",
          "type": "address"
        },
        {
          "indexed": true,
          "internalType": "address",
          "name": "to",
          "type": "address"
        },
        {
          "indexed": true,
          "internalType": "uint256",
          "name": "tokenId",
          "type": "uint256"
        }
      ],
      "name": "Transfer",
      "type": "event"
    },
    {
      "inputs": [
        {
          "internalType": "address",
          "name": "to",
          "type": "address"
        },
        {
          "internalType": "uint256",
          "name": "tokenId",
          "type": "uint256"
        }
      ],
      "name": "approve",
      "outputs": [],
      "stateMutability": "nonpayable",
      "type": "function"
    },
    {
      "inputs": [
        {
          "internalType": "address",
          "name": "owner",
          "type": "address"
        }
      ],
      "name": "balanceOf",
      "outputs": [
        {
          "internalType": "uint256",
          "name": "",
          "type": "uint256"
        }
      ],
      "stateMutability": "view",
      "type": "function"
    },
    {
      "inputs": [
        {
          "internalType": "uint256",
          "name": "tokenId",
          "type": "uint256"
        }
      ],
      "name": "getApproved",
      "outputs": [
        {
          "internalType": "address",
          "name": "",
          "type": "address"
        }
      ],
      "stateMutability": "view",
      "type": "function"
    },
    {
      "inputs": [
        {
          "internalType": "uint256",
          "name": "moddedRng",
          "type": "uint256"
        }
      ],
      "name": "getBreedFromModdedRng",
      "outputs": [
        {
          "internalType": "uint256",
          "name": "",
          "type": "uint256"
        }
      ],
      "stateMutability": "pure",
      "type": "function"
    },
    {
      "inputs": [],
      "name": "getChanceArray",
      "outputs": [
        {
          "internalType": "uint256[3]",
          "name": "",
          "type": "uint256[3]"
        }
      ],
      "stateMutability": "pure",
      "type": "function"
    },
    {
      "inputs": [
        {
          "internalType": "address",
          "name": "owner",
          "type": "address"
        },
        {
          "internalType": "address",
          "name": "operator",
          "type": "address"
        }
      ],
      "name": "isApprovedForAll",
      "outputs": [
        {
          "internalType": "bool",
          "name": "",
          "type": "bool"
        }
      ],
      "stateMutability": "view",
      "type": "function"
    },
    {
      "inputs": [],
      "name": "name",
      "outputs": [
        {
          "internalType": "string",
          "name": "",
          "type": "string"
        }
      ],
      "stateMutability": "view",
      "type": "function"
    },
    {
      "inputs": [
        {
          "internalType": "uint256",
          "name": "tokenId",
          "type": "uint256"
        }
      ],
      "name": "ownerOf",
      "outputs": [
        {
          "internalType": "address",
          "name": "",
          "type": "address"
        }
      ],
      "stateMutability": "view",
      "type": "function"
    },
    {
      "inputs": [
        {
          "internalType": "uint256",
          "name": "requestId",
          "type": "uint256"
        },
        {
          "internalType": "uint256[]",
          "name": "randomWords",
          "type": "uint256[]"
        }
      ],
      "name": "rawFulfillRandomWords",
      "outputs": [],
      "stateMutability": "nonpayable",
      "type": "function"
    },
    {
      "inputs": [],
      "name": "requestDoggie",
      "outputs": [
        {
          "internalType": "uint256",
          "name": "requestId",
          "type": "uint256"
        }
      ],
      "stateMutability": "nonpayable",
      "type": "function"
    },
    {
      "inputs": [
        {
          "internalType": "address",
          "name": "from",
          "type": "address"
        },
        {
          "internalType": "address",
          "name": "to",
          "type": "address"
        },
        {
          "internalType": "uint256",
          "name": "tokenId",
          "type": "uint256"
        }
      ],
      "name": "safeTransferFrom",
      "outputs": [],
      "stateMutability": "nonpayable",
      "type": "function"
    },
    {
      "inputs": [
        {
          "internalType": "address",
          "name": "from",
          "type": "address"
        },
        {
          "internalType": "address",
          "name": "to",
          "type": "address"
        },
        {
          "internalType": "uint256",
          "name": "tokenId",
          "type": "uint256"
        },
        {
          "internalType": "bytes",
          "name": "_data",
          "type": "bytes"
        }
      ],
      "name": "safeTransferFrom",
      "outputs": [],
      "stateMutability": "nonpayable",
      "type": "function"
    },
    {
      "inputs": [
        {
          "internalType": "address",
          "name": "operator",
          "type": "address"
        },
        {
          "internalType": "bool",
          "name": "approved",
          "type": "bool"
        }
      ],
      "name": "setApprovalForAll",
      "outputs": [],
      "stateMutability": "nonpayable",
      "type": "function"
    },
    {
      "inputs": [
        {
          "internalType": "bytes4",
          "name": "interfaceId",
          "type": "bytes4"
        }
      ],
      "name": "supportsInterface",
      "outputs": [
        {
          "internalType": "bool",
          "name": "",
          "type": "bool"
        }
      ],
      "stateMutability": "view",
      "type": "function"
    },
    {
      "inputs": [],
      "name": "symbol",
      "outputs": [
        {
          "internalType": "string",
          "name": "",
          "type": "string"
        }
      ],
      "stateMutability": "view",
      "type": "function"
    },
    {
      "inputs": [
        {
          "internalType": "uint256",
          "name": "tokenId",
          "type": "uint256"
        }
      ],
      "name": "tokenURI",
      "outputs": [
        {
          "internalType": "string",
          "name": "",
          "type": "string"
        }
      ],
      "stateMutability": "view",
      "type": "function"
    },
    {
      "inputs": [
        {
          "internalType": "address",
          "name": "from",
          "type": "address"
        },
        {
          "internalType": "address",
          "name": "to",
          "type": "address"
        },
        {
          "internalType": "uint256",
          "name": "tokenId",
          "type": "uint256"
        }
      ],
      "name": "transferFrom",
      "outputs": [],
      "stateMutability": "nonpayable",
      "type": "function"
    }
  ],
  "bytecode": "0x6101206040523480156200001257600080fd5b5060405162003b5238038062003b528339818101604052810190620000389190620004c3565b846040518060400160405280600f81526020017f52616e646f6d2049504653204e465400000000000000000000000000000000008152506040518060400160405280600381526020017f52494e00000000000000000000000000000000000000000000000000000000008152508160009080519060200190620000bd929190620001ae565b508060019080519060200190620000d6929190620001ae565b5050508073ffffffffffffffffffffffffffffffffffffffff1660808173ffffffffffffffffffffffffffffffffffffffff1660601b81525050508473ffffffffffffffffffffffffffffffffffffffff1660a08173ffffffffffffffffffffffffffffffffffffffff1660601b815250508360c081815250508267ffffffffffffffff1660e08167ffffffffffffffff1660c01b815250508163ffffffff166101008163ffffffff1660e01b815250506000600881905550806009906003620001a29291906200023f565b505050505050620007e6565b828054620001bc906200068a565b90600052602060002090601f016020900481019282620001e057600085556200022c565b82601f10620001fb57805160ff19168380011785556200022c565b828001600101855582156200022c579182015b828111156200022b5782518255916020019190600101906200020e565b5b5090506200023b919062000299565b5090565b826003810192821562000286579160200282015b828111156200028557825182908051906020019062000274929190620001ae565b509160200191906001019062000253565b5b509050620002959190620002b8565b5090565b5b80821115620002b45760008160009055506001016200029a565b5090565b5b80821115620002dc5760008181620002d29190620002e0565b50600101620002b9565b5090565b508054620002ee906200068a565b6000825580601f1062000302575062000323565b601f01602090049060005260206000209081019062000322919062000299565b5b50565b60006200033d620003378462000593565b6200056a565b905080828560208602820111156200035a576200035962000759565b5b60005b85811015620003af57815167ffffffffffffffff81111562000384576200038362000754565b5b80860162000393898262000462565b855260208501945060208401935050506001810190506200035d565b5050509392505050565b6000620003d0620003ca84620005bc565b6200056a565b905082815260208101848484011115620003ef57620003ee6200075e565b5b620003fc84828562000654565b509392505050565b60008151905062000415816200077e565b92915050565b600082601f83011262000433576200043262000754565b5b60036200044284828562000326565b91505092915050565b6000815190506200045c8162000798565b92915050565b600082601f8301126200047a576200047962000754565b5b81516200048c848260208601620003b9565b91505092915050565b600081519050620004a681620007b2565b92915050565b600081519050620004bd81620007cc565b92915050565b600080600080600060a08688031215620004e257620004e162000768565b5b6000620004f28882890162000404565b955050602062000505888289016200044b565b94505060406200051888828901620004ac565b93505060606200052b8882890162000495565b925050608086015167ffffffffffffffff8111156200054f576200054e62000763565b5b6200055d888289016200041b565b9150509295509295909350565b60006200057662000589565b9050620005848282620006c0565b919050565b6000604051905090565b600067ffffffffffffffff821115620005b157620005b062000725565b5b602082029050919050565b600067ffffffffffffffff821115620005da57620005d962000725565b5b620005e5826200076d565b9050602081019050919050565b6000620005ff8262000610565b9050919050565b6000819050919050565b600073ffffffffffffffffffffffffffffffffffffffff82169050919050565b600063ffffffff82169050919050565b600067ffffffffffffffff82169050919050565b60005b838110156200067457808201518184015260208101905062000657565b8381111562000684576000848401525b50505050565b60006002820490506001821680620006a357607f821691505b60208210811415620006ba57620006b9620006f6565b5b50919050565b620006cb826200076d565b810181811067ffffffffffffffff82111715620006ed57620006ec62000725565b5b80604052505050565b7f4e487b7100000000000000000000000000000000000000000000000000000000600052602260045260246000fd5b7f4e487b7100000000000000000000000000000000000000000000000000000000600052604160045260246000fd5b600080fd5b600080fd5b600080fd5b600080fd5b600080fd5b6000601f19601f8301169050919050565b6200078981620005f2565b81146200079557600080fd5b50565b620007a38162000606565b8114620007af57600080fd5b50565b620007bd8162000630565b8114620007c957600080fd5b50565b620007d78162000640565b8114620007e357600080fd5b50565b60805160601c60a05160601c60c05160e05160c01c6101005160e01c6133146200083e6000396000610715015260006106f2015260006106d101526000610695015260008181610801015261085501526133146000f3fe608060405234801561001057600080fd5b506004361061010b5760003560e01c80635dacf5f4116100a2578063a22cb46511610071578063a22cb465146102b8578063a51cccf3146102d4578063b88d4fde14610304578063c87b56dd14610320578063e985e9c5146103505761010b565b80635dacf5f41461021c5780636352211e1461023a57806370a082311461026a57806395d89b411461029a5761010b565b80631801cc8a116100de5780631801cc8a146101aa5780631fe543e3146101c857806323b872dd146101e457806342842e0e146102005761010b565b806301ffc9a71461011057806306fdde0314610140578063081812fc1461015e578063095ea7b31461018e575b600080fd5b61012a6004803603810190610125919061210e565b610380565b60405161013791906126b6565b60405180910390f35b610148610462565b6040516101559190612724565b60405180910390f35b61017860048036038101906101739190612168565b6104f4565b604051610185919061260b565b60405180910390f35b6101a860048036038101906101a391906120ce565b610579565b005b6101b2610691565b6040516101bf9190612946565b60405180910390f35b6101e260048036038101906101dd91906121c2565b6107ff565b005b6101fe60048036038101906101f99190611fb8565b6108bf565b005b61021a60048036038101906102159190611fb8565b61091f565b005b61022461093f565b604051610231919061269b565b60405180910390f35b610254600480360381019061024f9190612168565b61096a565b604051610261919061260b565b60405180910390f35b610284600480360381019061027f9190611f4b565b610a1c565b6040516102919190612946565b60405180910390f35b6102a2610ad4565b6040516102af9190612724565b60405180910390f35b6102d260048036038101906102cd919061208e565b610b66565b005b6102ee60048036038101906102e99190612168565b610b7c565b6040516102fb9190612946565b60405180910390f35b61031e6004803603810190610319919061200b565b610c1d565b005b61033a60048036038101906103359190612168565b610c7f565b6040516103479190612724565b60405180910390f35b61036a60048036038101906103659190611f78565b610dd1565b60405161037791906126b6565b60405180910390f35b60007f80ac58cd000000000000000000000000000000000000000000000000000000007bffffffffffffffffffffffffffffffffffffffffffffffffffffffff1916827bffffffffffffffffffffffffffffffffffffffffffffffffffffffff1916148061044b57507f5b5e139f000000000000000000000000000000000000000000000000000000007bffffffffffffffffffffffffffffffffffffffffffffffffffffffff1916827bffffffffffffffffffffffffffffffffffffffffffffffffffffffff1916145b8061045b575061045a82610e65565b5b9050919050565b60606000805461047190612c12565b80601f016020809104026020016040519081016040528092919081815260200182805461049d90612c12565b80156104ea5780601f106104bf576101008083540402835291602001916104ea565b820191906000526020600020905b8154815290600101906020018083116104cd57829003601f168201915b5050505050905090565b60006104ff82610ecf565b61053e576040517f08c379a0000000000000000000000000000000000000000000000000000000008152600401610535906128c6565b60405180910390fd5b6004600083815260200190815260200160002060009054906101000a900473ffffffffffffffffffffffffffffffffffffffff169050919050565b60006105848261096a565b90508073ffffffffffffffffffffffffffffffffffffffff168373ffffffffffffffffffffffffffffffffffffffff1614156105f5576040517f08c379a00000000000000000000000000000000000000000000000000000000081526004016105ec90612906565b60405180910390fd5b8073ffffffffffffffffffffffffffffffffffffffff16610614610f3b565b73ffffffffffffffffffffffffffffffffffffffff16148061064357506106428161063d610f3b565b610dd1565b5b610682576040517f08c379a000000000000000000000000000000000000000000000000000000000815260040161067990612806565b60405180910390fd5b61068c8383610f43565b505050565b60007f000000000000000000000000000000000000000000000000000000000000000073ffffffffffffffffffffffffffffffffffffffff16635d3b1d307f00000000000000000000000000000000000000000000000000000000000000007f000000000000000000000000000000000000000000000000000000000000000060037f000000000000000000000000000000000000000000000000000000000000000060016040518663ffffffff1660e01b81526004016107569594939291906126d1565b602060405180830381600087803b15801561077057600080fd5b505af1158015610784573d6000803e3d6000fd5b505050506040513d601f19601f820116820180604052508101906107a89190612195565b9050336007600083815260200190815260200160002060006101000a81548173ffffffffffffffffffffffffffffffffffffffff021916908373ffffffffffffffffffffffffffffffffffffffff16021790555090565b7f000000000000000000000000000000000000000000000000000000000000000073ffffffffffffffffffffffffffffffffffffffff163373ffffffffffffffffffffffffffffffffffffffff16146108b157337f00000000000000000000000000000000000000000000000000000000000000006040517f1cf993f40000000000000000000000000000000000000000000000000000000081526004016108a8929190612626565b60405180910390fd5b6108bb8282610ffc565b5050565b6108d06108ca610f3b565b82611142565b61090f576040517f08c379a000000000000000000000000000000000000000000000000000000000815260040161090690612926565b60405180910390fd5b61091a838383611220565b505050565b61093a83838360405180602001604052806000815250610c1d565b505050565b610947611cfa565b6040518060600160405280600a8152602001601e81526020016064815250905090565b6000806002600084815260200190815260200160002060009054906101000a900473ffffffffffffffffffffffffffffffffffffffff169050600073ffffffffffffffffffffffffffffffffffffffff168173ffffffffffffffffffffffffffffffffffffffff161415610a13576040517f08c379a0000000000000000000000000000000000000000000000000000000008152600401610a0a90612846565b60405180910390fd5b80915050919050565b60008073ffffffffffffffffffffffffffffffffffffffff168273ffffffffffffffffffffffffffffffffffffffff161415610a8d576040517f08c379a0000000000000000000000000000000000000000000000000000000008152600401610a8490612826565b60405180910390fd5b600360008373ffffffffffffffffffffffffffffffffffffffff1673ffffffffffffffffffffffffffffffffffffffff168152602001908152602001600020549050919050565b606060018054610ae390612c12565b80601f0160208091040260200160405190810160405280929190818152602001828054610b0f90612c12565b8015610b5c5780601f10610b3157610100808354040283529160200191610b5c565b820191906000526020600020905b815481529060010190602001808311610b3f57829003601f168201915b5050505050905090565b610b78610b71610f3b565b8383611487565b5050565b600080600090506000610b8d61093f565b905060005b6003811015610c1457828510158015610bcc5750818160038110610bb957610bb8612d7c565b5b602002015183610bc99190612a53565b85105b15610bdc57809350505050610c18565b818160038110610bef57610bee612d7c565b5b602002015183610bff9190612a53565b92508080610c0c90612c75565b915050610b92565b5050505b919050565b610c2e610c28610f3b565b83611142565b610c6d576040517f08c379a0000000000000000000000000000000000000000000000000000000008152600401610c6490612926565b60405180910390fd5b610c79848484846115f4565b50505050565b6060610c8a82610ecf565b610cc9576040517f08c379a0000000000000000000000000000000000000000000000000000000008152600401610cc0906128a6565b60405180910390fd5b6000600660008481526020019081526020016000208054610ce990612c12565b80601f0160208091040260200160405190810160405280929190818152602001828054610d1590612c12565b8015610d625780601f10610d3757610100808354040283529160200191610d62565b820191906000526020600020905b815481529060010190602001808311610d4557829003601f168201915b505050505090506000610d73611650565b9050600081511415610d89578192505050610dcc565b600082511115610dbe578082604051602001610da69291906125e7565b60405160208183030381529060405292505050610dcc565b610dc784611667565b925050505b919050565b6000600560008473ffffffffffffffffffffffffffffffffffffffff1673ffffffffffffffffffffffffffffffffffffffff16815260200190815260200160002060008373ffffffffffffffffffffffffffffffffffffffff1673ffffffffffffffffffffffffffffffffffffffff16815260200190815260200160002060009054906101000a900460ff16905092915050565b60007f01ffc9a7000000000000000000000000000000000000000000000000000000007bffffffffffffffffffffffffffffffffffffffffffffffffffffffff1916827bffffffffffffffffffffffffffffffffffffffffffffffffffffffff1916149050919050565b60008073ffffffffffffffffffffffffffffffffffffffff166002600084815260200190815260200160002060009054906101000a900473ffffffffffffffffffffffffffffffffffffffff1673ffffffffffffffffffffffffffffffffffffffff1614159050919050565b600033905090565b816004600083815260200190815260200160002060006101000a81548173ffffffffffffffffffffffffffffffffffffffff021916908373ffffffffffffffffffffffffffffffffffffffff160217905550808273ffffffffffffffffffffffffffffffffffffffff16610fb68361096a565b73ffffffffffffffffffffffffffffffffffffffff167f8c5be1e5ebec7d5bd14f71427d1e84f3dd0314c0f7b2291e5b200ac8c7c3b92560405160405180910390a45050565b60006007600084815260200190815260200160002060009054906101000a900473ffffffffffffffffffffffffffffffffffffffff16905060006008549050600160085461104a9190612a53565b600881905550600060648460008151811061106857611067612d7c565b5b602002602001015161107a9190612cbe565b9050600061108782610b7c565b9050611093848461170e565b61113a83600983600381106110ab576110aa612d7c565b5b0180546110b790612c12565b80601f01602080910402602001604051908101604052809291908181526020018280546110e390612c12565b80156111305780601f1061110557610100808354040283529160200191611130565b820191906000526020600020905b81548152906001019060200180831161111357829003601f168201915b505050505061172c565b505050505050565b600061114d82610ecf565b61118c576040517f08c379a0000000000000000000000000000000000000000000000000000000008152600401611183906127e6565b60405180910390fd5b60006111978361096a565b90508073ffffffffffffffffffffffffffffffffffffffff168473ffffffffffffffffffffffffffffffffffffffff1614806111d957506111d88185610dd1565b5b8061121757508373ffffffffffffffffffffffffffffffffffffffff166111ff846104f4565b73ffffffffffffffffffffffffffffffffffffffff16145b91505092915050565b8273ffffffffffffffffffffffffffffffffffffffff166112408261096a565b73ffffffffffffffffffffffffffffffffffffffff1614611296576040517f08c379a000000000000000000000000000000000000000000000000000000000815260040161128d90612766565b60405180910390fd5b600073ffffffffffffffffffffffffffffffffffffffff168273ffffffffffffffffffffffffffffffffffffffff161415611306576040517f08c379a00000000000000000000000000000000000000000000000000000000081526004016112fd906127a6565b60405180910390fd5b6113118383836117a0565b61131c600082610f43565b6001600360008573ffffffffffffffffffffffffffffffffffffffff1673ffffffffffffffffffffffffffffffffffffffff168152602001908152602001600020600082825461136c9190612ada565b925050819055506001600360008473ffffffffffffffffffffffffffffffffffffffff1673ffffffffffffffffffffffffffffffffffffffff16815260200190815260200160002060008282546113c39190612a53565b92505081905550816002600083815260200190815260200160002060006101000a81548173ffffffffffffffffffffffffffffffffffffffff021916908373ffffffffffffffffffffffffffffffffffffffff160217905550808273ffffffffffffffffffffffffffffffffffffffff168473ffffffffffffffffffffffffffffffffffffffff167fddf252ad1be2c89b69c2b068fc378daa952ba7f163c4a11628f55a4df523b3ef60405160405180910390a46114828383836117a5565b505050565b8173ffffffffffffffffffffffffffffffffffffffff168373ffffffffffffffffffffffffffffffffffffffff1614156114f6576040517f08c379a00000000000000000000000000000000000000000000000000000000081526004016114ed906127c6565b60405180910390fd5b80600560008573ffffffffffffffffffffffffffffffffffffffff1673ffffffffffffffffffffffffffffffffffffffff16815260200190815260200160002060008473ffffffffffffffffffffffffffffffffffffffff1673ffffffffffffffffffffffffffffffffffffffff16815260200190815260200160002060006101000a81548160ff0219169083151502179055508173ffffffffffffffffffffffffffffffffffffffff168373ffffffffffffffffffffffffffffffffffffffff167f17307eab39ab6107e8899845ad3d59bd9653f200f220920489ca2b5937696c31836040516115e791906126b6565b60405180910390a3505050565b6115ff848484611220565b61160b848484846117aa565b61164a576040517f08c379a000000000000000000000000000000000000000000000000000000000815260040161164190612746565b60405180910390fd5b50505050565b606060405180602001604052806000815250905090565b606061167282610ecf565b6116b1576040517f08c379a00000000000000000000000000000000000000000000000000000000081526004016116a8906128e6565b60405180910390fd5b60006116bb611650565b905060008151116116db5760405180602001604052806000815250611706565b806116e584611941565b6040516020016116f69291906125e7565b6040516020818303038152906040525b915050919050565b611728828260405180602001604052806000815250611aa2565b5050565b61173582610ecf565b611774576040517f08c379a000000000000000000000000000000000000000000000000000000000815260040161176b90612866565b60405180910390fd5b8060066000848152602001908152602001600020908051906020019061179b929190611d1c565b505050565b505050565b505050565b60006117cb8473ffffffffffffffffffffffffffffffffffffffff16611afd565b15611934578373ffffffffffffffffffffffffffffffffffffffff1663150b7a026117f4610f3b565b8786866040518563ffffffff1660e01b8152600401611816949392919061264f565b602060405180830381600087803b15801561183057600080fd5b505af192505050801561186157506040513d601f19601f8201168201806040525081019061185e919061213b565b60015b6118e4573d8060008114611891576040519150601f19603f3d011682016040523d82523d6000602084013e611896565b606091505b506000815114156118dc576040517f08c379a00000000000000000000000000000000000000000000000000000000081526004016118d390612746565b60405180910390fd5b805181602001fd5b63150b7a0260e01b7bffffffffffffffffffffffffffffffffffffffffffffffffffffffff1916817bffffffffffffffffffffffffffffffffffffffffffffffffffffffff191614915050611939565b600190505b949350505050565b60606000821415611989576040518060400160405280600181526020017f30000000000000000000000000000000000000000000000000000000000000008152509050611a9d565b600082905060005b600082146119bb5780806119a490612c75565b915050600a826119b49190612aa9565b9150611991565b60008167ffffffffffffffff8111156119d7576119d6612dab565b5b6040519080825280601f01601f191660200182016040528015611a095781602001600182028036833780820191505090505b5090505b60008514611a9657600182611a229190612ada565b9150600a85611a319190612cbe565b6030611a3d9190612a53565b60f81b818381518110611a5357611a52612d7c565b5b60200101907effffffffffffffffffffffffffffffffffffffffffffffffffffffffffffff1916908160001a905350600a85611a8f9190612aa9565b9450611a0d565b8093505050505b919050565b611aac8383611b20565b611ab960008484846117aa565b611af8576040517f08c379a0000000000000000000000000000000000000000000000000000000008152600401611aef90612746565b60405180910390fd5b505050565b6000808273ffffffffffffffffffffffffffffffffffffffff163b119050919050565b600073ffffffffffffffffffffffffffffffffffffffff168273ffffffffffffffffffffffffffffffffffffffff161415611b90576040517f08c379a0000000000000000000000000000000000000000000000000000000008152600401611b8790612886565b60405180910390fd5b611b9981610ecf565b15611bd9576040517f08c379a0000000000000000000000000000000000000000000000000000000008152600401611bd090612786565b60405180910390fd5b611be5600083836117a0565b6001600360008473ffffffffffffffffffffffffffffffffffffffff1673ffffffffffffffffffffffffffffffffffffffff1681526020019081526020016000206000828254611c359190612a53565b92505081905550816002600083815260200190815260200160002060006101000a81548173ffffffffffffffffffffffffffffffffffffffff021916908373ffffffffffffffffffffffffffffffffffffffff160217905550808273ffffffffffffffffffffffffffffffffffffffff16600073ffffffffffffffffffffffffffffffffffffffff167fddf252ad1be2c89b69c2b068fc378daa952ba7f163c4a11628f55a4df523b3ef60405160405180910390a4611cf6600083836117a5565b5050565b6040518060600160405280600390602082028036833780820191505090505090565b828054611d2890612c12565b90600052602060002090601f016020900481019282611d4a5760008555611d91565b82601f10611d6357805160ff1916838001178555611d91565b82800160010185558215611d91579182015b82811115611d90578251825591602001919060010190611d75565b5b509050611d9e9190611da2565b5090565b5b80821115611dbb576000816000905550600101611da3565b5090565b6000611dd2611dcd84612986565b612961565b90508083825260208201905082856020860282011115611df557611df4612ddf565b5b60005b85811015611e255781611e0b8882611f21565b845260208401935060208301925050600181019050611df8565b5050509392505050565b6000611e42611e3d846129b2565b612961565b905082815260208101848484011115611e5e57611e5d612de4565b5b611e69848285612bd0565b509392505050565b600081359050611e8081613282565b92915050565b600082601f830112611e9b57611e9a612dda565b5b8135611eab848260208601611dbf565b91505092915050565b600081359050611ec381613299565b92915050565b600081359050611ed8816132b0565b92915050565b600081519050611eed816132b0565b92915050565b600082601f830112611f0857611f07612dda565b5b8135611f18848260208601611e2f565b91505092915050565b600081359050611f30816132c7565b92915050565b600081519050611f45816132c7565b92915050565b600060208284031215611f6157611f60612dee565b5b6000611f6f84828501611e71565b91505092915050565b60008060408385031215611f8f57611f8e612dee565b5b6000611f9d85828601611e71565b9250506020611fae85828601611e71565b9150509250929050565b600080600060608486031215611fd157611fd0612dee565b5b6000611fdf86828701611e71565b9350506020611ff086828701611e71565b925050604061200186828701611f21565b9150509250925092565b6000806000806080858703121561202557612024612dee565b5b600061203387828801611e71565b945050602061204487828801611e71565b935050604061205587828801611f21565b925050606085013567ffffffffffffffff81111561207657612075612de9565b5b61208287828801611ef3565b91505092959194509250565b600080604083850312156120a5576120a4612dee565b5b60006120b385828601611e71565b92505060206120c485828601611eb4565b9150509250929050565b600080604083850312156120e5576120e4612dee565b5b60006120f385828601611e71565b925050602061210485828601611f21565b9150509250929050565b60006020828403121561212457612123612dee565b5b600061213284828501611ec9565b91505092915050565b60006020828403121561215157612150612dee565b5b600061215f84828501611ede565b91505092915050565b60006020828403121561217e5761217d612dee565b5b600061218c84828501611f21565b91505092915050565b6000602082840312156121ab576121aa612dee565b5b60006121b984828501611f36565b91505092915050565b600080604083850312156121d9576121d8612dee565b5b60006121e785828601611f21565b925050602083013567ffffffffffffffff81111561220857612207612de9565b5b61221485828601611e86565b9150509250929050565b600061222a83836125ab565b60208301905092915050565b61223f81612b0e565b82525050565b61224e816129ed565b6122588184612a1b565b9250612263826129e3565b8060005b8381101561229457815161227b878261221e565b965061228683612a0e565b925050600181019050612267565b505050505050565b6122a581612b20565b82525050565b6122b481612b2c565b82525050565b60006122c5826129f8565b6122cf8185612a26565b93506122df818560208601612bdf565b6122e881612df3565b840191505092915050565b60006122fe82612a03565b6123088185612a37565b9350612318818560208601612bdf565b61232181612df3565b840191505092915050565b600061233782612a03565b6123418185612a48565b9350612351818560208601612bdf565b80840191505092915050565b600061236a603283612a37565b915061237582612e04565b604082019050919050565b600061238d602583612a37565b915061239882612e53565b604082019050919050565b60006123b0601c83612a37565b91506123bb82612ea2565b602082019050919050565b60006123d3602483612a37565b91506123de82612ecb565b604082019050919050565b60006123f6601983612a37565b915061240182612f1a565b602082019050919050565b6000612419602c83612a37565b915061242482612f43565b604082019050919050565b600061243c603883612a37565b915061244782612f92565b604082019050919050565b600061245f602a83612a37565b915061246a82612fe1565b604082019050919050565b6000612482602983612a37565b915061248d82613030565b604082019050919050565b60006124a5602e83612a37565b91506124b08261307f565b604082019050919050565b60006124c8602083612a37565b91506124d3826130ce565b602082019050919050565b60006124eb603183612a37565b91506124f6826130f7565b604082019050919050565b600061250e602c83612a37565b915061251982613146565b604082019050919050565b6000612531602f83612a37565b915061253c82613195565b604082019050919050565b6000612554602183612a37565b915061255f826131e4565b604082019050919050565b6000612577603183612a37565b915061258282613233565b604082019050919050565b61259681612b62565b82525050565b6125a581612bbe565b82525050565b6125b481612b90565b82525050565b6125c381612b90565b82525050565b6125d281612b9a565b82525050565b6125e181612baa565b82525050565b60006125f3828561232c565b91506125ff828461232c565b91508190509392505050565b60006020820190506126206000830184612236565b92915050565b600060408201905061263b6000830185612236565b6126486020830184612236565b9392505050565b60006080820190506126646000830187612236565b6126716020830186612236565b61267e60408301856125ba565b818103606083015261269081846122ba565b905095945050505050565b60006060820190506126b06000830184612245565b92915050565b60006020820190506126cb600083018461229c565b92915050565b600060a0820190506126e660008301886122ab565b6126f360208301876125d8565b612700604083018661258d565b61270d60608301856125c9565b61271a608083018461259c565b9695505050505050565b6000602082019050818103600083015261273e81846122f3565b905092915050565b6000602082019050818103600083015261275f8161235d565b9050919050565b6000602082019050818103600083015261277f81612380565b9050919050565b6000602082019050818103600083015261279f816123a3565b9050919050565b600060208201905081810360008301526127bf816123c6565b9050919050565b600060208201905081810360008301526127df816123e9565b9050919050565b600060208201905081810360008301526127ff8161240c565b9050919050565b6000602082019050818103600083015261281f8161242f565b9050919050565b6000602082019050818103600083015261283f81612452565b9050919050565b6000602082019050818103600083015261285f81612475565b9050919050565b6000602082019050818103600083015261287f81612498565b9050919050565b6000602082019050818103600083015261289f816124bb565b9050919050565b600060208201905081810360008301526128bf816124de565b9050919050565b600060208201905081810360008301526128df81612501565b9050919050565b600060208201905081810360008301526128ff81612524565b9050919050565b6000602082019050818103600083015261291f81612547565b9050919050565b6000602082019050818103600083015261293f8161256a565b9050919050565b600060208201905061295b60008301846125ba565b92915050565b600061296b61297c565b90506129778282612c44565b919050565b6000604051905090565b600067ffffffffffffffff8211156129a1576129a0612dab565b5b602082029050602081019050919050565b600067ffffffffffffffff8211156129cd576129cc612dab565b5b6129d682612df3565b9050602081019050919050565b6000819050919050565b600060039050919050565b600081519050919050565b600081519050919050565b6000602082019050919050565b600081905092915050565b600082825260208201905092915050565b600082825260208201905092915050565b600081905092915050565b6000612a5e82612b90565b9150612a6983612b90565b9250827fffffffffffffffffffffffffffffffffffffffffffffffffffffffffffffffff03821115612a9e57612a9d612cef565b5b828201905092915050565b6000612ab482612b90565b9150612abf83612b90565b925082612acf57612ace612d1e565b5b828204905092915050565b6000612ae582612b90565b9150612af083612b90565b925082821015612b0357612b02612cef565b5b828203905092915050565b6000612b1982612b70565b9050919050565b60008115159050919050565b6000819050919050565b60007fffffffff0000000000000000000000000000000000000000000000000000000082169050919050565b600061ffff82169050919050565b600073ffffffffffffffffffffffffffffffffffffffff82169050919050565b6000819050919050565b600063ffffffff82169050919050565b600067ffffffffffffffff82169050919050565b6000612bc982612b62565b9050919050565b82818337600083830152505050565b60005b83811015612bfd578082015181840152602081019050612be2565b83811115612c0c576000848401525b50505050565b60006002820490506001821680612c2a57607f821691505b60208210811415612c3e57612c3d612d4d565b5b50919050565b612c4d82612df3565b810181811067ffffffffffffffff82111715612c6c57612c6b612dab565b5b80604052505050565b6000612c8082612b90565b91507fffffffffffffffffffffffffffffffffffffffffffffffffffffffffffffffff821415612cb357612cb2612cef565b5b600182019050919050565b6000612cc982612b90565b9150612cd483612b90565b925082612ce457612ce3612d1e565b5b828206905092915050565b7f4e487b7100000000000000000000000000000000000000000000000000000000600052601160045260246000fd5b7f4e487b7100000000000000000000000000000000000000000000000000000000600052601260045260246000fd5b7f4e487b7100000000000000000000000000000000000000000000000000000000600052602260045260246000fd5b7f4e487b7100000000000000000000000000000000000000000000000000000000600052603260045260246000fd5b7f4e487b7100000000000000000000000000000000000000000000000000000000600052604160045260246000fd5b600080fd5b600080fd5b600080fd5b600080fd5b600080fd5b6000601f19601f8301169050919050565b7f4552433732313a207472616e7366657220746f206e6f6e20455243373231526560008201527f63656976657220696d706c656d656e7465720000000000000000000000000000602082015250565b7f4552433732313a207472616e736665722066726f6d20696e636f72726563742060008201527f6f776e6572000000000000000000000000000000000000000000000000000000602082015250565b7f4552433732313a20746f6b656e20616c7265616479206d696e74656400000000600082015250565b7f4552433732313a207472616e7366657220746f20746865207a65726f2061646460008201527f7265737300000000000000000000000000000000000000000000000000000000602082015250565b7f4552433732313a20617070726f766520746f2063616c6c657200000000000000600082015250565b7f4552433732313a206f70657261746f7220717565727920666f72206e6f6e657860008201527f697374656e7420746f6b656e0000000000000000000000000000000000000000602082015250565b7f4552433732313a20617070726f76652063616c6c6572206973206e6f74206f7760008201527f6e6572206e6f7220617070726f76656420666f7220616c6c0000000000000000602082015250565b7f4552433732313a2062616c616e636520717565727920666f7220746865207a6560008201527f726f206164647265737300000000000000000000000000000000000000000000602082015250565b7f4552433732313a206f776e657220717565727920666f72206e6f6e657869737460008201527f656e7420746f6b656e0000000000000000000000000000000000000000000000602082015250565b7f45524337323155524953746f726167653a2055524920736574206f66206e6f6e60008201527f6578697374656e7420746f6b656e000000000000000000000000000000000000602082015250565b7f4552433732313a206d696e7420746f20746865207a65726f2061646472657373600082015250565b7f45524337323155524953746f726167653a2055524920717565727920666f722060008201527f6e6f6e6578697374656e7420746f6b656e000000000000000000000000000000602082015250565b7f4552433732313a20617070726f76656420717565727920666f72206e6f6e657860008201527f697374656e7420746f6b656e0000000000000000000000000000000000000000602082015250565b7f4552433732314d657461646174613a2055524920717565727920666f72206e6f60008201527f6e6578697374656e7420746f6b656e0000000000000000000000000000000000602082015250565b7f4552433732313a20617070726f76616c20746f2063757272656e74206f776e6560008201527f7200000000000000000000000000000000000000000000000000000000000000602082015250565b7f4552433732313a207472616e736665722063616c6c6572206973206e6f74206f60008201527f776e6572206e6f7220617070726f766564000000000000000000000000000000602082015250565b61328b81612b0e565b811461329657600080fd5b50565b6132a281612b20565b81146132ad57600080fd5b50565b6132b981612b36565b81146132c457600080fd5b50565b6132d081612b90565b81146132db57600080fd5b5056fea2646970667358221220c2ed28b3f464a0046f8aa8b54405ec319d8577a1c6a6fe39ecad8aecf9b28a7e64736f6c63430008070033",
  "linkReferences": {},
  "deployedLinkReferences": {}
}